{
  "contractName": "ToDoList",
  "abi": [
    {
      "constant": true,
      "inputs": [
        {
          "name": "",
          "type": "uint256"
        }
      ],
      "name": "tasks",
      "outputs": [
        {
          "name": "id",
          "type": "uint256"
        },
        {
          "name": "content",
          "type": "string"
        },
        {
          "name": "completed",
          "type": "bool"
        }
      ],
      "payable": false,
      "stateMutability": "view",
      "type": "function",
      "signature": "0x8d977672"
    },
    {
      "constant": true,
      "inputs": [],
      "name": "owner",
      "outputs": [
        {
          "name": "",
          "type": "address"
        }
      ],
      "payable": false,
      "stateMutability": "view",
      "type": "function",
      "signature": "0x8da5cb5b"
    },
    {
      "constant": true,
      "inputs": [],
      "name": "taskCount",
      "outputs": [
        {
          "name": "",
          "type": "uint256"
        }
      ],
      "payable": false,
      "stateMutability": "view",
      "type": "function",
      "signature": "0xb6cb58a5"
    },
    {
      "inputs": [],
      "payable": false,
      "stateMutability": "nonpayable",
      "type": "constructor",
      "signature": "constructor"
    },
    {
      "anonymous": false,
      "inputs": [
        {
          "indexed": false,
          "name": "id",
          "type": "uint256"
        },
        {
          "indexed": false,
          "name": "content",
          "type": "string"
        },
        {
          "indexed": false,
          "name": "completed",
          "type": "bool"
        }
      ],
      "name": "TaskCreated",
      "type": "event",
      "signature": "0x05d0fb833127fc08168556d0e7ca9554fc3f6bc843b3b7d2bf1c35aea6bab660"
    },
    {
      "anonymous": false,
      "inputs": [
        {
          "indexed": false,
          "name": "id",
          "type": "uint256"
        },
        {
          "indexed": false,
          "name": "completed",
          "type": "bool"
        }
      ],
      "name": "TaskCompleted",
      "type": "event",
      "signature": "0xe21fa966ca5cd02748c0752352d18c48165e61cb55b4c29cccf924b5a95fcff1"
    },
    {
      "constant": false,
      "inputs": [
        {
          "name": "_content",
          "type": "string"
        }
      ],
      "name": "createTask",
      "outputs": [],
      "payable": false,
      "stateMutability": "nonpayable",
      "type": "function",
      "signature": "0x111002aa"
    },
    {
      "constant": false,
      "inputs": [
        {
          "name": "_id",
          "type": "uint256"
        }
      ],
      "name": "toggleCompleted",
      "outputs": [],
      "payable": false,
      "stateMutability": "nonpayable",
      "type": "function",
      "signature": "0x455f5024"
    },
    {
      "constant": true,
      "inputs": [],
      "name": "getTaskCount",
      "outputs": [
        {
          "name": "",
          "type": "uint256"
        }
      ],
      "payable": false,
      "stateMutability": "view",
      "type": "function",
      "signature": "0xc17a340e"
    }
  ],
  "bytecode": "0x608060405234801561001057600080fd5b50610085606060405190810160405280602a81526020017f436865636b206f75742068747470733a2f2f7777772e7765623373656375726981526020017f747964616f2e78797a2f0000000000000000000000000000000000000000000081525061008a640100000000026401000000009004565b61024a565b6000805460019081018083556040805160608101825282815260208082018781528284018790529386526002815291909420845181559151805192936100d8939085019291909101906101af565b5060408201518160020160006101000a81548160ff0219169083151502179055509050507f05d0fb833127fc08168556d0e7ca9554fc3f6bc843b3b7d2bf1c35aea6bab660600054826000604051808481526020018060200183151515158152602001828103825284818151815260200191508051906020019080838360005b83811015610170578181015183820152602001610158565b50505050905090810190601f16801561019d5780820380516001836020036101000a031916815260200191505b5094505050505060405180910390a150565b828054600181600116156101000203166002900490600052602060002090601f016020900481019282601f106101f057805160ff191683800117855561021d565b8280016001018555821561021d579182015b8281111561021d578251825591602001919060010190610202565b5061022992915061022d565b5090565b61024791905b808211156102295760008155600101610233565b90565b6106cc806102596000396000f3fe6080604052600436106100775763ffffffff7c0100000000000000000000000000000000000000000000000000000000600035041663111002aa811461007c578063455f5024146101315780638d9776721461015b5780638da5cb5b1461020f578063b6cb58a51461024d578063c17a340e14610274575b600080fd5b34801561008857600080fd5b5061012f6004803603602081101561009f57600080fd5b8101906020810181356401000000008111156100ba57600080fd5b8201836020820111156100cc57600080fd5b803590602001918460018302840111640100000000831117156100ee57600080fd5b91908080601f016020809104026020016040519081016040528093929190818152602001838380828437600092019190915250929550610289945050505050565b005b34801561013d57600080fd5b5061012f6004803603602081101561015457600080fd5b50356103ae565b34801561016757600080fd5b506101856004803603602081101561017e57600080fd5b503561050d565b604051808481526020018060200183151515158152602001828103825284818151815260200191508051906020019080838360005b838110156101d25781810151838201526020016101ba565b50505050905090810190601f1680156101ff5780820380516001836020036101000a031916815260200191505b5094505050505060405180910390f35b34801561021b57600080fd5b506102246105bb565b6040805173ffffffffffffffffffffffffffffffffffffffff9092168252519081900360200190f35b34801561025957600080fd5b506102626105d7565b60408051918252519081900360200190f35b34801561028057600080fd5b506102626105dd565b6000805460019081018083556040805160608101825282815260208082018781528284018790529386526002815291909420845181559151805192936102d7939085019291909101906105e4565b5060408201518160020160006101000a81548160ff0219169083151502179055509050507f05d0fb833127fc08168556d0e7ca9554fc3f6bc843b3b7d2bf1c35aea6bab660600054826000604051808481526020018060200183151515158152602001828103825284818151815260200191508051906020019080838360005b8381101561036f578181015183820152602001610357565b50505050905090810190601f16801561039c5780820380516001836020036101000a031916815260200191505b5094505050505060405180910390a150565b6103b6610662565b6000828152600260208181526040928390208351606081018552815481526001808301805487519281161561010002600019011695909504601f810185900485028201850190965285815290949193858401939192909183018282801561045e5780601f106104335761010080835404028352916020019161045e565b820191906000526020600020905b81548152906001019060200180831161044157829003601f168201915b505050918352505060029182015460ff16151560209182015260408084018051159052600086815292825290912082518155828201518051939450849391926104af926001850192909101906105e4565b50604091820151600291909101805460ff1916911515919091179055818101518151848152901515602082015281517fe21fa966ca5cd02748c0752352d18c48165e61cb55b4c29cccf924b5a95fcff1929181900390910190a15050565b60026020818152600092835260409283902080546001808301805487519281161561010002600019011695909504601f81018590048502820185019096528581529094919390929091908301828280156105a85780601f1061057d576101008083540402835291602001916105a8565b820191906000526020600020905b81548152906001019060200180831161058b57829003601f168201915b5050506002909301549192505060ff1683565b60015473ffffffffffffffffffffffffffffffffffffffff1681565b60005481565b6000545b90565b828054600181600116156101000203166002900490600052602060002090601f016020900481019282601f1061062557805160ff1916838001178555610652565b82800160010185558215610652579182015b82811115610652578251825591602001919060010190610637565b5061065e929150610686565b5090565b60606040519081016040528060008152602001606081526020016000151581525090565b6105e191905b8082111561065e576000815560010161068c56fea165627a7a72305820109b300fd48b96a560470cb93bdb5981bfb878e040460e3cfc01733da77846270029",
  "source": "// SPDX-License-Identifier: UNLICENSED\npragma solidity ^0.5.0;\n\ncontract ToDoList {\n    uint256 public taskCount; // state variable\n    address public owner;\n\n    struct Task {\n        uint256 id;\n        string content;\n        bool completed;\n    }\n\n    mapping(uint256 => Task) public tasks;\n\n    event TaskCreated(uint256 id, string content, bool completed);\n    event TaskCompleted(uint256 id, bool completed);\n\n    constructor() public {\n        //owner = msg.sender;\n        createTask(\"Check out https://www.web3securitydao.xyz/\");\n    }\n\n    function createTask(string memory _content) public {\n        taskCount++;\n        tasks[taskCount] = Task(taskCount, _content, false);\n        emit TaskCreated(taskCount, _content, false); // an event that can be subscribed to\n    }\n\n    function toggleCompleted(uint _id) public {\n        // When want to acess the struct to change the completed bool\n        Task memory _task = tasks[_id];\n        _task.completed = !_task.completed; // using the ! sets the value to the opposite of what it already is\n        tasks[_id] = _task;\n        emit TaskCompleted(_id, _task.completed);\n    }\n\n    function getTaskCount() public view returns (uint256) {\n        return taskCount;\n    }\n}\n",
  "sourcePath": "/home/buidl_0xf0ff/projects/eighty_projects/todo_web3_truffle/contracts/ToDoList.sol",
  "compiler": {
    "name": "solc",
    "version": "0.5.0+commit.1d4f565a.Emscripten.clang"
  },
  "schemaVersion": "3.0.1",
  "updatedAt": "2023-02-25T16:25:50.300Z",
  "devdoc": {
    "methods": {}
  },
  "userdoc": {
    "methods": {}
  }
}