{
  "contractName": "ToDoList",
  "abi": [
    {
      "constant": true,
      "inputs": [
        {
          "name": "",
          "type": "uint256"
        }
      ],
      "name": "tasks",
      "outputs": [
        {
          "name": "id",
          "type": "uint256"
        },
        {
          "name": "content",
          "type": "string"
        },
        {
          "name": "completed",
          "type": "bool"
        }
      ],
      "payable": false,
      "stateMutability": "view",
      "type": "function",
      "signature": "0x8d977672"
    },
    {
      "constant": true,
      "inputs": [],
      "name": "owner",
      "outputs": [
        {
          "name": "",
          "type": "address"
        }
      ],
      "payable": false,
      "stateMutability": "view",
      "type": "function",
      "signature": "0x8da5cb5b"
    },
    {
      "constant": true,
      "inputs": [],
      "name": "taskCount",
      "outputs": [
        {
          "name": "",
          "type": "uint256"
        }
      ],
      "payable": false,
      "stateMutability": "view",
      "type": "function",
      "signature": "0xb6cb58a5"
    },
    {
      "inputs": [],
      "payable": false,
      "stateMutability": "nonpayable",
      "type": "constructor",
      "signature": "constructor"
    },
    {
      "constant": false,
      "inputs": [
        {
          "name": "_content",
          "type": "string"
        }
      ],
      "name": "createTask",
      "outputs": [],
      "payable": false,
      "stateMutability": "nonpayable",
      "type": "function",
      "signature": "0x111002aa"
    },
    {
      "constant": true,
      "inputs": [],
      "name": "getTaskCount",
      "outputs": [
        {
          "name": "",
          "type": "uint256"
        }
      ],
      "payable": false,
      "stateMutability": "view",
      "type": "function",
      "signature": "0xc17a340e"
    }
  ],
  "bytecode": "0x608060405234801561001057600080fd5b5060018054600160a060020a0319163317905560408051606081018252602a81527f436865636b206f75742068747470733a2f2f7777772e7765623373656375726960208201527f747964616f2e78797a2f000000000000000000000000000000000000000000009181019190915261009190640100000000610096810204565b61019e565b6000805460019081018083556040805160608101825282815260208082018781528284018790529386526002815291909420845181559151805192936100e493908501929190910190610103565b50604091909101516002909101805460ff191691151591909117905550565b828054600181600116156101000203166002900490600052602060002090601f016020900481019282601f1061014457805160ff1916838001178555610171565b82800160010185558215610171579182015b82811115610171578251825591602001919060010190610156565b5061017d929150610181565b5090565b61019b91905b8082111561017d5760008155600101610187565b90565b61045c806101ad6000396000f3fe60806040526004361061006c5763ffffffff7c0100000000000000000000000000000000000000000000000000000000600035041663111002aa81146100715780638d977672146101265780638da5cb5b146101da578063b6cb58a514610218578063c17a340e1461023f575b600080fd5b34801561007d57600080fd5b506101246004803603602081101561009457600080fd5b8101906020810181356401000000008111156100af57600080fd5b8201836020820111156100c157600080fd5b803590602001918460018302840111640100000000831117156100e357600080fd5b91908080601f016020809104026020016040519081016040528093929190818152602001838380828437600092019190915250929550610254945050505050565b005b34801561013257600080fd5b506101506004803603602081101561014957600080fd5b50356102c1565b604051808481526020018060200183151515158152602001828103825284818151815260200191508051906020019080838360005b8381101561019d578181015183820152602001610185565b50505050905090810190601f1680156101ca5780820380516001836020036101000a031916815260200191505b5094505050505060405180910390f35b3480156101e657600080fd5b506101ef61036f565b6040805173ffffffffffffffffffffffffffffffffffffffff9092168252519081900360200190f35b34801561022457600080fd5b5061022d61038b565b60408051918252519081900360200190f35b34801561024b57600080fd5b5061022d610391565b6000805460019081018083556040805160608101825282815260208082018781528284018790529386526002815291909420845181559151805192936102a293908501929190910190610398565b50604091909101516002909101805460ff191691151591909117905550565b60026020818152600092835260409283902080546001808301805487519281161561010002600019011695909504601f810185900485028201850190965285815290949193909290919083018282801561035c5780601f106103315761010080835404028352916020019161035c565b820191906000526020600020905b81548152906001019060200180831161033f57829003601f168201915b5050506002909301549192505060ff1683565b60015473ffffffffffffffffffffffffffffffffffffffff1681565b60005481565b6000545b90565b828054600181600116156101000203166002900490600052602060002090601f016020900481019282601f106103d957805160ff1916838001178555610406565b82800160010185558215610406579182015b828111156104065782518255916020019190600101906103eb565b50610412929150610416565b5090565b61039591905b80821115610412576000815560010161041c56fea165627a7a72305820a144f4726b578f1f840e7acac183d430e06cafa8758d9f0cc4e14a709ff489b40029",
  "source": "// SPDX-License-Identifier: UNLICENSED\npragma solidity ^0.5.0;\n\ncontract ToDoList {\n    uint256 public taskCount; // state variable\n    address public owner;\n\n    struct Task {\n        uint256 id;\n        string content;\n        bool completed;\n    }\n\n    mapping(uint256 => Task) public tasks;\n\n    constructor() public {\n        owner = msg.sender;\n        createTask(\"Check out https://www.web3securitydao.xyz/\");\n    }\n\n    function createTask(string memory _content) public {\n        taskCount++;\n        tasks[taskCount] = Task(taskCount, _content, false);\n    }\n\n    function getTaskCount() public view returns (uint256) {\n        return taskCount;\n    }\n}\n",
  "sourcePath": "/home/buidl_0xf0ff/projects/eighty_projects/todo_web3_truffle/contracts/ToDoList.sol",
  "compiler": {
    "name": "solc",
    "version": "0.5.0+commit.1d4f565a.Emscripten.clang"
  },
  "schemaVersion": "3.0.1",
  "updatedAt": "2023-02-04T20:47:20.237Z",
  "devdoc": {
    "methods": {}
  },
  "userdoc": {
    "methods": {}
  }
}