{
  "contractName": "ToDoList",
  "abi": [
    {
      "constant": true,
      "inputs": [
        {
          "name": "",
          "type": "uint256"
        }
      ],
      "name": "tasks",
      "outputs": [
        {
          "name": "id",
          "type": "uint256"
        },
        {
          "name": "content",
          "type": "string"
        },
        {
          "name": "completed",
          "type": "bool"
        }
      ],
      "payable": false,
      "stateMutability": "view",
      "type": "function",
      "signature": "0x8d977672"
    },
    {
      "constant": true,
      "inputs": [],
      "name": "owner",
      "outputs": [
        {
          "name": "",
          "type": "address"
        }
      ],
      "payable": false,
      "stateMutability": "view",
      "type": "function",
      "signature": "0x8da5cb5b"
    },
    {
      "constant": true,
      "inputs": [],
      "name": "taskCount",
      "outputs": [
        {
          "name": "",
          "type": "uint256"
        }
      ],
      "payable": false,
      "stateMutability": "view",
      "type": "function",
      "signature": "0xb6cb58a5"
    },
    {
      "inputs": [],
      "payable": false,
      "stateMutability": "nonpayable",
      "type": "constructor",
      "signature": "constructor"
    },
    {
      "anonymous": false,
      "inputs": [
        {
          "indexed": false,
          "name": "id",
          "type": "uint256"
        },
        {
          "indexed": false,
          "name": "content",
          "type": "string"
        },
        {
          "indexed": false,
          "name": "completed",
          "type": "bool"
        }
      ],
      "name": "TaskCreated",
      "type": "event",
      "signature": "0x05d0fb833127fc08168556d0e7ca9554fc3f6bc843b3b7d2bf1c35aea6bab660"
    },
    {
      "constant": false,
      "inputs": [
        {
          "name": "_content",
          "type": "string"
        }
      ],
      "name": "createTask",
      "outputs": [],
      "payable": false,
      "stateMutability": "nonpayable",
      "type": "function",
      "signature": "0x111002aa"
    },
    {
      "constant": true,
      "inputs": [],
      "name": "getTaskCount",
      "outputs": [
        {
          "name": "",
          "type": "uint256"
        }
      ],
      "payable": false,
      "stateMutability": "view",
      "type": "function",
      "signature": "0xc17a340e"
    }
  ],
  "bytecode": "0x608060405234801561001057600080fd5b50610085606060405190810160405280602a81526020017f436865636b206f75742068747470733a2f2f7777772e7765623373656375726981526020017f747964616f2e78797a2f0000000000000000000000000000000000000000000081525061008a640100000000026401000000009004565b61024a565b6000805460019081018083556040805160608101825282815260208082018781528284018790529386526002815291909420845181559151805192936100d8939085019291909101906101af565b5060408201518160020160006101000a81548160ff0219169083151502179055509050507f05d0fb833127fc08168556d0e7ca9554fc3f6bc843b3b7d2bf1c35aea6bab660600054826000604051808481526020018060200183151515158152602001828103825284818151815260200191508051906020019080838360005b83811015610170578181015183820152602001610158565b50505050905090810190601f16801561019d5780820380516001836020036101000a031916815260200191505b5094505050505060405180910390a150565b828054600181600116156101000203166002900490600052602060002090601f016020900481019282601f106101f057805160ff191683800117855561021d565b8280016001018555821561021d579182015b8281111561021d578251825591602001919060010190610202565b5061022992915061022d565b5090565b61024791905b808211156102295760008155600101610233565b90565b610514806102596000396000f3fe60806040526004361061006c5763ffffffff7c0100000000000000000000000000000000000000000000000000000000600035041663111002aa81146100715780638d977672146101265780638da5cb5b146101da578063b6cb58a514610218578063c17a340e1461023f575b600080fd5b34801561007d57600080fd5b506101246004803603602081101561009457600080fd5b8101906020810181356401000000008111156100af57600080fd5b8201836020820111156100c157600080fd5b803590602001918460018302840111640100000000831117156100e357600080fd5b91908080601f016020809104026020016040519081016040528093929190818152602001838380828437600092019190915250929550610254945050505050565b005b34801561013257600080fd5b506101506004803603602081101561014957600080fd5b5035610379565b604051808481526020018060200183151515158152602001828103825284818151815260200191508051906020019080838360005b8381101561019d578181015183820152602001610185565b50505050905090810190601f1680156101ca5780820380516001836020036101000a031916815260200191505b5094505050505060405180910390f35b3480156101e657600080fd5b506101ef610427565b6040805173ffffffffffffffffffffffffffffffffffffffff9092168252519081900360200190f35b34801561022457600080fd5b5061022d610443565b60408051918252519081900360200190f35b34801561024b57600080fd5b5061022d610449565b6000805460019081018083556040805160608101825282815260208082018781528284018790529386526002815291909420845181559151805192936102a293908501929190910190610450565b5060408201518160020160006101000a81548160ff0219169083151502179055509050507f05d0fb833127fc08168556d0e7ca9554fc3f6bc843b3b7d2bf1c35aea6bab660600054826000604051808481526020018060200183151515158152602001828103825284818151815260200191508051906020019080838360005b8381101561033a578181015183820152602001610322565b50505050905090810190601f1680156103675780820380516001836020036101000a031916815260200191505b5094505050505060405180910390a150565b60026020818152600092835260409283902080546001808301805487519281161561010002600019011695909504601f81018590048502820185019096528581529094919390929091908301828280156104145780601f106103e957610100808354040283529160200191610414565b820191906000526020600020905b8154815290600101906020018083116103f757829003601f168201915b5050506002909301549192505060ff1683565b60015473ffffffffffffffffffffffffffffffffffffffff1681565b60005481565b6000545b90565b828054600181600116156101000203166002900490600052602060002090601f016020900481019282601f1061049157805160ff19168380011785556104be565b828001600101855582156104be579182015b828111156104be5782518255916020019190600101906104a3565b506104ca9291506104ce565b5090565b61044d91905b808211156104ca57600081556001016104d456fea165627a7a72305820d1319587ca8c092335cb990d79c33f12ea0295473c318a443691d348a186570b0029",
  "source": "// SPDX-License-Identifier: UNLICENSED\npragma solidity ^0.5.0;\n\ncontract ToDoList {\n    uint256 public taskCount; // state variable\n    address public owner;\n\n    struct Task {\n        uint256 id;\n        string content;\n        bool completed;\n    }\n\n    mapping(uint256 => Task) public tasks;\n\n    event TaskCreated(uint256 id, string content, bool completed);\n\n    constructor() public {\n        //owner = msg.sender;\n        createTask(\"Check out https://www.web3securitydao.xyz/\");\n    }\n\n    function createTask(string memory _content) public {\n        taskCount++;\n        tasks[taskCount] = Task(taskCount, _content, false);\n        emit TaskCreated(taskCount, _content, false); // an event that can be subscribed to\n    }\n\n    function getTaskCount() public view returns (uint256) {\n        return taskCount;\n    }\n}\n",
  "sourcePath": "/home/buidl_0xf0ff/projects/eighty_projects/todo_web3_truffle/contracts/ToDoList.sol",
  "compiler": {
    "name": "solc",
    "version": "0.5.0+commit.1d4f565a.Emscripten.clang"
  },
  "schemaVersion": "3.0.1",
  "updatedAt": "2023-02-15T13:10:37.693Z",
  "devdoc": {
    "methods": {}
  },
  "userdoc": {
    "methods": {}
  }
}